{
  "contractName": "Voting",
  "abi": [
    {
      "anonymous": false,
      "inputs": [
        {
          "indexed": true,
          "internalType": "address",
          "name": "previousOwner",
          "type": "address"
        },
        {
          "indexed": true,
          "internalType": "address",
          "name": "newOwner",
          "type": "address"
        }
      ],
      "name": "OwnershipTransferred",
      "type": "event"
    },
    {
      "anonymous": false,
      "inputs": [
        {
          "indexed": false,
          "internalType": "uint256",
          "name": "proposalId",
          "type": "uint256"
        }
      ],
      "name": "ProposalRegistered",
      "type": "event"
    },
    {
      "anonymous": false,
      "inputs": [
        {
          "indexed": false,
          "internalType": "string",
          "name": "text",
          "type": "string"
        }
      ],
      "name": "ProposalsRegistrationEnded",
      "type": "event"
    },
    {
      "anonymous": false,
      "inputs": [
        {
          "indexed": false,
          "internalType": "string",
          "name": "text",
          "type": "string"
        }
      ],
      "name": "ProposalsRegistrationStarted",
      "type": "event"
    },
    {
      "anonymous": false,
      "inputs": [
        {
          "indexed": false,
          "internalType": "address",
          "name": "voter",
          "type": "address"
        },
        {
          "indexed": false,
          "internalType": "uint256",
          "name": "proposalId",
          "type": "uint256"
        }
      ],
      "name": "Voted",
      "type": "event"
    },
    {
      "anonymous": false,
      "inputs": [
        {
          "indexed": false,
          "internalType": "address",
          "name": "voterAddress",
          "type": "address"
        }
      ],
      "name": "VoterRegistered",
      "type": "event"
    },
    {
      "anonymous": false,
      "inputs": [],
      "name": "VotesTallied",
      "type": "event"
    },
    {
      "anonymous": false,
      "inputs": [
        {
          "indexed": false,
          "internalType": "string",
          "name": "text",
          "type": "string"
        }
      ],
      "name": "VotingSessionEnded",
      "type": "event"
    },
    {
      "anonymous": false,
      "inputs": [
        {
          "indexed": false,
          "internalType": "string",
          "name": "text",
          "type": "string"
        }
      ],
      "name": "VotingSessionStarted",
      "type": "event"
    },
    {
      "anonymous": false,
      "inputs": [
        {
          "indexed": false,
          "internalType": "enum Voting.WorkflowStatus",
          "name": "previousStatus",
          "type": "uint8"
        },
        {
          "indexed": false,
          "internalType": "enum Voting.WorkflowStatus",
          "name": "newStatus",
          "type": "uint8"
        }
      ],
      "name": "WorkflowStatusChange",
      "type": "event"
    },
    {
      "inputs": [],
      "name": "owner",
      "outputs": [
        {
          "internalType": "address",
          "name": "",
          "type": "address"
        }
      ],
      "stateMutability": "view",
      "type": "function",
      "constant": true
    },
    {
      "inputs": [
        {
          "internalType": "uint256",
          "name": "",
          "type": "uint256"
        }
      ],
      "name": "proposalsArray",
      "outputs": [
        {
          "internalType": "string",
          "name": "description",
          "type": "string"
        },
        {
          "internalType": "uint256",
          "name": "voteCount",
          "type": "uint256"
        },
        {
          "internalType": "uint256",
          "name": "proposalId",
          "type": "uint256"
        }
      ],
      "stateMutability": "view",
      "type": "function",
      "constant": true
    },
    {
      "inputs": [],
      "name": "renounceOwnership",
      "outputs": [],
      "stateMutability": "nonpayable",
      "type": "function"
    },
    {
      "inputs": [],
      "name": "status",
      "outputs": [
        {
          "internalType": "enum Voting.WorkflowStatus",
          "name": "",
          "type": "uint8"
        }
      ],
      "stateMutability": "view",
      "type": "function",
      "constant": true
    },
    {
      "inputs": [
        {
          "internalType": "address",
          "name": "newOwner",
          "type": "address"
        }
      ],
      "name": "transferOwnership",
      "outputs": [],
      "stateMutability": "nonpayable",
      "type": "function"
    },
    {
      "inputs": [
        {
          "internalType": "address",
          "name": "",
          "type": "address"
        }
      ],
      "name": "voters",
      "outputs": [
        {
          "internalType": "bool",
          "name": "isRegistered",
          "type": "bool"
        },
        {
          "internalType": "bool",
          "name": "hasVoted",
          "type": "bool"
        },
        {
          "internalType": "uint256",
          "name": "votedProposalId",
          "type": "uint256"
        },
        {
          "internalType": "bool",
          "name": "hasSubmittedProposal",
          "type": "bool"
        }
      ],
      "stateMutability": "view",
      "type": "function",
      "constant": true
    },
    {
      "inputs": [
        {
          "internalType": "uint256",
          "name": "",
          "type": "uint256"
        }
      ],
      "name": "whitelistAddress",
      "outputs": [
        {
          "internalType": "address",
          "name": "",
          "type": "address"
        }
      ],
      "stateMutability": "view",
      "type": "function",
      "constant": true
    },
    {
      "inputs": [],
      "name": "winningProposal",
      "outputs": [
        {
          "internalType": "string",
          "name": "",
          "type": "string"
        }
      ],
      "stateMutability": "view",
      "type": "function",
      "constant": true
    },
    {
      "inputs": [],
      "name": "winningProposalId",
      "outputs": [
        {
          "internalType": "uint256",
          "name": "",
          "type": "uint256"
        }
      ],
      "stateMutability": "view",
      "type": "function",
      "constant": true
    },
    {
      "inputs": [],
      "name": "getWhitelistAddress",
      "outputs": [
        {
          "internalType": "address[]",
          "name": "",
          "type": "address[]"
        }
      ],
      "stateMutability": "view",
      "type": "function",
      "constant": true
    },
    {
      "inputs": [],
      "name": "getProposalArray",
      "outputs": [
        {
          "components": [
            {
              "internalType": "string",
              "name": "description",
              "type": "string"
            },
            {
              "internalType": "uint256",
              "name": "voteCount",
              "type": "uint256"
            },
            {
              "internalType": "uint256",
              "name": "proposalId",
              "type": "uint256"
            }
          ],
          "internalType": "struct Voting.Proposal[]",
          "name": "",
          "type": "tuple[]"
        }
      ],
      "stateMutability": "view",
      "type": "function",
      "constant": true
    },
    {
      "inputs": [
        {
          "internalType": "address",
          "name": "_toWhitelist",
          "type": "address"
        }
      ],
      "name": "whitelist",
      "outputs": [],
      "stateMutability": "nonpayable",
      "type": "function"
    },
    {
      "inputs": [],
      "name": "startProposalSession",
      "outputs": [],
      "stateMutability": "nonpayable",
      "type": "function"
    },
    {
      "inputs": [],
      "name": "endProposalSession",
      "outputs": [],
      "stateMutability": "nonpayable",
      "type": "function"
    },
    {
      "inputs": [],
      "name": "startVotingSession",
      "outputs": [],
      "stateMutability": "nonpayable",
      "type": "function"
    },
    {
      "inputs": [],
      "name": "endVotingSession",
      "outputs": [],
      "stateMutability": "nonpayable",
      "type": "function"
    },
    {
      "inputs": [
        {
          "internalType": "string",
          "name": "_proposal",
          "type": "string"
        }
      ],
      "name": "createProposal",
      "outputs": [],
      "stateMutability": "nonpayable",
      "type": "function"
    },
    {
      "inputs": [
        {
          "internalType": "uint256",
          "name": "_proposalId",
          "type": "uint256"
        }
      ],
      "name": "vote",
      "outputs": [],
      "stateMutability": "nonpayable",
      "type": "function"
    },
    {
      "inputs": [],
      "name": "tallyVotes",
      "outputs": [
        {
          "internalType": "uint256",
          "name": "",
          "type": "uint256"
        }
      ],
      "stateMutability": "nonpayable",
      "type": "function"
    },
    {
      "inputs": [],
      "name": "getWinningProposal",
      "outputs": [
        {
          "components": [
            {
              "internalType": "string",
              "name": "description",
              "type": "string"
            },
            {
              "internalType": "uint256",
              "name": "voteCount",
              "type": "uint256"
            },
            {
              "internalType": "uint256",
              "name": "proposalId",
              "type": "uint256"
            }
          ],
          "internalType": "struct Voting.Proposal",
          "name": "",
          "type": "tuple"
        }
      ],
      "stateMutability": "view",
      "type": "function",
      "constant": true
    }
  ],
  "bytecode": "0x60806040526000600660006101000a81548160ff021916908360058111156200002457fe5b02179055503480156200003657600080fd5b50600062000052620000f6640100000000026401000000009004565b9050806000806101000a81548173ffffffffffffffffffffffffffffffffffffffff021916908373ffffffffffffffffffffffffffffffffffffffff1602179055508073ffffffffffffffffffffffffffffffffffffffff16600073ffffffffffffffffffffffffffffffffffffffff167f8be0079c531659141344cd1fd0a4f28419497f9722a3daafe3b4186f6b6457e060405160405180910390a350620000fe565b600033905090565b612b3d806200010e6000396000f3fe608060405234801561001057600080fd5b5060043610610149576000357c0100000000000000000000000000000000000000000000000000000000900480639b19251a116100ca578063c64963c51161008e578063c64963c5146102f5578063e06752c214610313578063ee74c6781461031d578063f2fde38b14610327578063f86c67791461034357610149565b80639b19251a14610260578063a3ec138d1461027c578063a5134620146102af578063a7bfab16146102cd578063ae8e64ac146102d757610149565b806350d072fc1161011157806350d072fc146101f2578063609ff1bd146101fc578063715018a61461021a5780638da5cb5b14610224578063915eb9731461024257610149565b80630121b93f1461014e578063200d2ed21461016a5780632c2a592814610188578063378a2178146101b857806349c2a1a6146101d6575b600080fd5b61016860048036038101906101639190611ce9565b610375565b005b6101726105cf565b60405161017f91906125bd565b60405180910390f35b6101a2600480360381019061019d9190611ce9565b6105e2565b6040516101af91906124f0565b60405180910390f35b6101c061061e565b6040516101cd91906128c3565b60405180910390f35b6101f060048036038101906101eb9190611ca8565b6107ca565b005b6101fa610a3c565b005b610204610bd0565b6040516102119190612601565b60405180910390f35b610222610c6e565b005b61022c610dc3565b60405161023991906124f0565b60405180910390f35b61024a610dec565b6040516102579190612534565b60405180910390f35b61027a60048036038101906102759190611c7f565b610e7a565b005b61029660048036038101906102919190611c7f565b611100565b6040516102a69493929190612578565b60405180910390f35b6102b7611157565b6040516102c491906128a1565b60405180910390f35b6102d5611242565b005b6102df6113d6565b6040516102ec9190612556565b60405180910390f35b6102fd6114eb565b60405161030a91906128c3565b60405180910390f35b61031b6114f1565b005b610325611685565b005b610341600480360381019061033c9190611c7f565b611819565b005b61035d60048036038101906103589190611ce9565b6119dd565b60405161036c93929190612623565b60405180910390f35b6003600581111561038257fe5b600660009054906101000a900460ff16600581111561039d57fe5b146103dd576040517f08c379a00000000000000000000000000000000000000000000000000000000081526004016103d4906127c1565b60405180910390fd5b60011515600460003373ffffffffffffffffffffffffffffffffffffffff1673ffffffffffffffffffffffffffffffffffffffff16815260200190815260200160002060000160009054906101000a900460ff16151514610473576040517f08c379a000000000000000000000000000000000000000000000000000000000815260040161046a906126e1565b60405180910390fd5b60011515600460003373ffffffffffffffffffffffffffffffffffffffff1673ffffffffffffffffffffffffffffffffffffffff16815260200190815260200160002060000160019054906101000a900460ff161515141561050a576040517f08c379a0000000000000000000000000000000000000000000000000000000008152600401610501906126c1565b60405180910390fd5b6003818154811061051757fe5b9060005260206000209060030201600101600081548092919060010191905055506001600460003373ffffffffffffffffffffffffffffffffffffffff1673ffffffffffffffffffffffffffffffffffffffff16815260200190815260200160002060000160016101000a81548160ff0219169083151502179055507f4d99b957a2bc29a30ebd96a7be8e68fe50a3c701db28a91436490b7d53870ca433826040516105c492919061250b565b60405180910390a150565b600660009054906101000a900460ff1681565b600581815481106105ef57fe5b906000526020600020016000915054906101000a900473ffffffffffffffffffffffffffffffffffffffff1681565b6000610628611aac565b73ffffffffffffffffffffffffffffffffffffffff166000809054906101000a900473ffffffffffffffffffffffffffffffffffffffff1673ffffffffffffffffffffffffffffffffffffffff16146106b6576040517f08c379a00000000000000000000000000000000000000000000000000000000081526004016106ad906127e1565b60405180910390fd5b600460058111156106c357fe5b600660009054906101000a900460ff1660058111156106de57fe5b146106e857600080fd5b6005600660006101000a81548160ff0219169083600581111561070757fe5b0217905550600080905060008090505b6003805490508110156107c057816003828154811061073257fe5b90600052602060002090600302016001015411156107b3576003818154811061075757fe5b90600052602060002090600302016001015491506003818154811061077857fe5b9060005260206000209060030201600001600290805460018160011615610100020316600290046107aa929190611ab4565b50806001819055505b8080600101915050610717565b5060015491505090565b600160058111156107d757fe5b600660009054906101000a900460ff1660058111156107f257fe5b14610832576040517f08c379a000000000000000000000000000000000000000000000000000000000815260040161082990612721565b60405180910390fd5b60011515600460003373ffffffffffffffffffffffffffffffffffffffff1673ffffffffffffffffffffffffffffffffffffffff16815260200190815260200160002060000160009054906101000a900460ff161515146108c8576040517f08c379a00000000000000000000000000000000000000000000000000000000081526004016108bf90612761565b60405180910390fd5b60011515600460003373ffffffffffffffffffffffffffffffffffffffff1673ffffffffffffffffffffffffffffffffffffffff16815260200190815260200160002060020160009054906101000a900460ff161515141561095f576040517f08c379a000000000000000000000000000000000000000000000000000000000815260040161095690612661565b60405180910390fd5b6003604051806060016040528083815260200160008152602001600380549050815250908060018154018082558091505060019003906000526020600020906003020160009091909190915060008201518160000190805190602001906109c7929190611b3b565b50602082015181600101556040820151816002015550506001600460003373ffffffffffffffffffffffffffffffffffffffff1673ffffffffffffffffffffffffffffffffffffffff16815260200190815260200160002060020160006101000a81548160ff02191690831515021790555050565b610a44611aac565b73ffffffffffffffffffffffffffffffffffffffff166000809054906101000a900473ffffffffffffffffffffffffffffffffffffffff1673ffffffffffffffffffffffffffffffffffffffff1614610ad2576040517f08c379a0000000000000000000000000000000000000000000000000000000008152600401610ac9906127e1565b60405180910390fd5b60006005811115610adf57fe5b600660009054906101000a900460ff166005811115610afa57fe5b14610b3a576040517f08c379a0000000000000000000000000000000000000000000000000000000008152600401610b3190612701565b60405180910390fd5b6001600660006101000a81548160ff02191690836005811115610b5957fe5b02179055507f0a97a4ee45751e2abf3e4fc8946939630b11b371ea8ae39ccdc3056e98f5cc3f60006001604051610b919291906125d8565b60405180910390a17f6b66f6a80e363a52fd90847896d3c8177f7cb7776beac4086387706de1c0c23a604051610bc690612861565b60405180910390a1565b60028054600181600116156101000203166002900480601f016020809104026020016040519081016040528092919081815260200182805460018160011615610100020316600290048015610c665780601f10610c3b57610100808354040283529160200191610c66565b820191906000526020600020905b815481529060010190602001808311610c4957829003601f168201915b505050505081565b610c76611aac565b73ffffffffffffffffffffffffffffffffffffffff166000809054906101000a900473ffffffffffffffffffffffffffffffffffffffff1673ffffffffffffffffffffffffffffffffffffffff1614610d04576040517f08c379a0000000000000000000000000000000000000000000000000000000008152600401610cfb906127e1565b60405180910390fd5b600073ffffffffffffffffffffffffffffffffffffffff166000809054906101000a900473ffffffffffffffffffffffffffffffffffffffff1673ffffffffffffffffffffffffffffffffffffffff167f8be0079c531659141344cd1fd0a4f28419497f9722a3daafe3b4186f6b6457e060405160405180910390a360008060006101000a81548173ffffffffffffffffffffffffffffffffffffffff021916908373ffffffffffffffffffffffffffffffffffffffff160217905550565b60008060009054906101000a900473ffffffffffffffffffffffffffffffffffffffff16905090565b60606005805480602002602001604051908101604052809291908181526020018280548015610e7057602002820191906000526020600020905b8160009054906101000a900473ffffffffffffffffffffffffffffffffffffffff1673ffffffffffffffffffffffffffffffffffffffff1681526020019060010190808311610e26575b5050505050905090565b610e82611aac565b73ffffffffffffffffffffffffffffffffffffffff166000809054906101000a900473ffffffffffffffffffffffffffffffffffffffff1673ffffffffffffffffffffffffffffffffffffffff1614610f10576040517f08c379a0000000000000000000000000000000000000000000000000000000008152600401610f07906127e1565b60405180910390fd5b60006005811115610f1d57fe5b600660009054906101000a900460ff166005811115610f3857fe5b14610f78576040517f08c379a0000000000000000000000000000000000000000000000000000000008152600401610f6f906127a1565b60405180910390fd5b600460008273ffffffffffffffffffffffffffffffffffffffff1673ffffffffffffffffffffffffffffffffffffffff16815260200190815260200160002060000160009054906101000a900460ff1615611008576040517f08c379a0000000000000000000000000000000000000000000000000000000008152600401610fff90612881565b60405180910390fd5b6001600460008373ffffffffffffffffffffffffffffffffffffffff1673ffffffffffffffffffffffffffffffffffffffff16815260200190815260200160002060000160006101000a81548160ff0219169083151502179055506005819080600181540180825580915050600190039060005260206000200160009091909190916101000a81548173ffffffffffffffffffffffffffffffffffffffff021916908373ffffffffffffffffffffffffffffffffffffffff1602179055507fb6be2187d059cc2a55fe29e0e503b566e1e0f8c8780096e185429350acffd3dd816040516110f591906124f0565b60405180910390a150565b60046020528060005260406000206000915090508060000160009054906101000a900460ff16908060000160019054906101000a900460ff16908060010154908060020160009054906101000a900460ff16905084565b61115f611bbb565b60036001548154811061116e57fe5b9060005260206000209060030201604051806060016040529081600082018054600181600116156101000203166002900480601f0160208091040260200160405190810160405280929190818152602001828054600181600116156101000203166002900480156112205780601f106111f557610100808354040283529160200191611220565b820191906000526020600020905b81548152906001019060200180831161120357829003601f168201915b5050505050815260200160018201548152602001600282015481525050905090565b61124a611aac565b73ffffffffffffffffffffffffffffffffffffffff166000809054906101000a900473ffffffffffffffffffffffffffffffffffffffff1673ffffffffffffffffffffffffffffffffffffffff16146112d8576040517f08c379a00000000000000000000000000000000000000000000000000000000081526004016112cf906127e1565b60405180910390fd5b600360058111156112e557fe5b600660009054906101000a900460ff16600581111561130057fe5b14611340576040517f08c379a000000000000000000000000000000000000000000000000000000000815260040161133790612681565b60405180910390fd5b6004600660006101000a81548160ff0219169083600581111561135f57fe5b02179055507f0a97a4ee45751e2abf3e4fc8946939630b11b371ea8ae39ccdc3056e98f5cc3f600360046040516113979291906125d8565b60405180910390a17f3fabecb670e320e0d3cf0e4a7ea1012ac2dd37a6a89af10d5814752bfea145b26040516113cc90612801565b60405180910390a1565b60606003805480602002602001604051908101604052809291908181526020016000905b828210156114e25783829060005260206000209060030201604051806060016040529081600082018054600181600116156101000203166002900480601f0160208091040260200160405190810160405280929190818152602001828054600181600116156101000203166002900480156114b65780601f1061148b576101008083540402835291602001916114b6565b820191906000526020600020905b81548152906001019060200180831161149957829003601f168201915b5050505050815260200160018201548152602001600282015481525050815260200190600101906113fa565b50505050905090565b60015481565b6114f9611aac565b73ffffffffffffffffffffffffffffffffffffffff166000809054906101000a900473ffffffffffffffffffffffffffffffffffffffff1673ffffffffffffffffffffffffffffffffffffffff1614611587576040517f08c379a000000000000000000000000000000000000000000000000000000000815260040161157e906127e1565b60405180910390fd5b6001600581111561159457fe5b600660009054906101000a900460ff1660058111156115af57fe5b146115ef576040517f08c379a00000000000000000000000000000000000000000000000000000000081526004016115e690612821565b60405180910390fd5b6002600660006101000a81548160ff0219169083600581111561160e57fe5b02179055507f0a97a4ee45751e2abf3e4fc8946939630b11b371ea8ae39ccdc3056e98f5cc3f600160026040516116469291906125d8565b60405180910390a17fcba335c8703aac2f1be34d01922c23b3e3b1f3f5bbec2e06b582de0daff762a260405161167b90612741565b60405180910390a1565b61168d611aac565b73ffffffffffffffffffffffffffffffffffffffff166000809054906101000a900473ffffffffffffffffffffffffffffffffffffffff1673ffffffffffffffffffffffffffffffffffffffff161461171b576040517f08c379a0000000000000000000000000000000000000000000000000000000008152600401611712906127e1565b60405180910390fd5b6002600581111561172857fe5b600660009054906101000a900460ff16600581111561174357fe5b14611783576040517f08c379a000000000000000000000000000000000000000000000000000000000815260040161177a90612841565b60405180910390fd5b6003600660006101000a81548160ff021916908360058111156117a257fe5b02179055507f0a97a4ee45751e2abf3e4fc8946939630b11b371ea8ae39ccdc3056e98f5cc3f600260036040516117da9291906125d8565b60405180910390a17f6b66f6a80e363a52fd90847896d3c8177f7cb7776beac4086387706de1c0c23a60405161180f90612781565b60405180910390a1565b611821611aac565b73ffffffffffffffffffffffffffffffffffffffff166000809054906101000a900473ffffffffffffffffffffffffffffffffffffffff1673ffffffffffffffffffffffffffffffffffffffff16146118af576040517f08c379a00000000000000000000000000000000000000000000000000000000081526004016118a6906127e1565b60405180910390fd5b600073ffffffffffffffffffffffffffffffffffffffff168173ffffffffffffffffffffffffffffffffffffffff16141561191f576040517f08c379a0000000000000000000000000000000000000000000000000000000008152600401611916906126a1565b60405180910390fd5b8073ffffffffffffffffffffffffffffffffffffffff166000809054906101000a900473ffffffffffffffffffffffffffffffffffffffff1673ffffffffffffffffffffffffffffffffffffffff167f8be0079c531659141344cd1fd0a4f28419497f9722a3daafe3b4186f6b6457e060405160405180910390a3806000806101000a81548173ffffffffffffffffffffffffffffffffffffffff021916908373ffffffffffffffffffffffffffffffffffffffff16021790555050565b600381815481106119ea57fe5b9060005260206000209060030201600091509050806000018054600181600116156101000203166002900480601f016020809104026020016040519081016040528092919081815260200182805460018160011615610100020316600290048015611a965780601f10611a6b57610100808354040283529160200191611a96565b820191906000526020600020905b815481529060010190602001808311611a7957829003601f168201915b5050505050908060010154908060020154905083565b600033905090565b828054600181600116156101000203166002900490600052602060002090601f016020900481019282601f10611aed5780548555611b2a565b82800160010185558215611b2a57600052602060002091601f016020900482015b82811115611b29578254825591600101919060010190611b0e565b5b509050611b379190611bdc565b5090565b828054600181600116156101000203166002900490600052602060002090601f016020900481019282601f10611b7c57805160ff1916838001178555611baa565b82800160010185558215611baa579182015b82811115611ba9578251825591602001919060010190611b8e565b5b509050611bb79190611bdc565b5090565b60405180606001604052806060815260200160008152602001600081525090565b611bfe91905b80821115611bfa576000816000905550600101611be2565b5090565b90565b600081359050611c1081612ad9565b92915050565b600082601f830112611c2757600080fd5b8135611c3a611c358261290b565b6128de565b91508082526020830160208301858383011115611c5657600080fd5b611c61838284612a79565b50505092915050565b600081359050611c7981612af0565b92915050565b600060208284031215611c9157600080fd5b6000611c9f84828501611c01565b91505092915050565b600060208284031215611cba57600080fd5b600082013567ffffffffffffffff811115611cd457600080fd5b611ce084828501611c16565b91505092915050565b600060208284031215611cfb57600080fd5b6000611d0984828501611c6a565b91505092915050565b6000611d1e8383611d4d565b60208301905092915050565b6000611d368383612432565b905092915050565b611d4781612a31565b82525050565b611d56816129d6565b82525050565b611d65816129d6565b82525050565b6000611d7682612957565b611d808185612992565b9350611d8b83612937565b8060005b83811015611dbc578151611da38882611d12565b9750611dae83612978565b925050600181019050611d8f565b5085935050505092915050565b6000611dd482612962565b611dde81856129a3565b935083602082028501611df085612947565b8060005b85811015611e2c5784840389528151611e0d8582611d2a565b9450611e1883612985565b925060208a01995050600181019050611df4565b50829750879550505050505092915050565b611e47816129e8565b82525050565b611e5681612a43565b82525050565b6000611e678261296d565b611e7181856129b4565b9350611e81818560208601612a88565b611e8a81612abb565b840191505092915050565b6000611ea08261296d565b611eaa81856129c5565b9350611eba818560208601612a88565b611ec381612abb565b840191505092915050565b6000611edb6020836129c5565b91507f766f74657220616c7265616479207375626d69747465642070726f706f73616c6000830152602082019050919050565b6000611f1b601d836129c5565b91507f766f74696e672073657373696f6e206e6f7420696e2070726f636573730000006000830152602082019050919050565b6000611f5b6026836129c5565b91507f4f776e61626c653a206e6577206f776e657220697320746865207a65726f206160008301527f64647265737300000000000000000000000000000000000000000000000000006020830152604082019050919050565b6000611fc16016836129c5565b91507f757365722068617320616c726561647920766f746564000000000000000000006000830152602082019050919050565b6000612001601d836129c5565b91507f75736572206973206e6f74207065726d697474656420746f20766f74650000006000830152602082019050919050565b60006120416033836129c5565b91507f6e6f74207468652074696d6520746f20696e696174652070726f706f73616c2060008301527f7265676973746572696e672073657373696f6e000000000000000000000000006020830152604082019050919050565b60006120a7601d836129c5565b91507f6e6f742074696d6520746f2072656769737465722070726f706f73616c0000006000830152602082019050919050565b60006120e76024836129c5565b91507f2070726f706f73616c20726567697374726174696f6e2073657373696f6e206560008301527f6e646564000000000000000000000000000000000000000000000000000000006020830152604082019050919050565b600061214d6013836129c5565b91507f61646472657373206e6f7420616c6c6f776564000000000000000000000000006000830152602082019050919050565b600061218d6016836129c5565b91507f766f74696e672073657373696f6e2073746172746564000000000000000000006000830152602082019050919050565b60006121cd601a836129c5565b91507f6e6f74207468652074696d6520746f2061646420766f746572730000000000006000830152602082019050919050565b600061220d6018836129c5565b91507f69742773206e6f742074696d6520666f7220766f74696e6700000000000000006000830152602082019050919050565b600061224d6020836129c5565b91507f4f776e61626c653a2063616c6c6572206973206e6f7420746865206f776e65726000830152602082019050919050565b600061228d6017836129c5565b91507f766f74696e672073657373696f6e20697320656e6465640000000000000000006000830152602082019050919050565b60006122cd6024836129c5565b91507f7265676973746572696e672070726f706f73616c206e6f7420696e2070726f6760008301527f72657373000000000000000000000000000000000000000000000000000000006020830152604082019050919050565b60006123336025836129c5565b91507f6e6f74207468652074696d6520746f20696e6961746520766f74696e6720736560008301527f7373696f6e0000000000000000000000000000000000000000000000000000006020830152604082019050919050565b60006123996026836129c5565b91507f2070726f706f73616c20726567697374726174696f6e2073657373696f6e207360008301527f74617274656400000000000000000000000000000000000000000000000000006020830152604082019050919050565b60006123ff601b836129c5565b91507f766f74657220697320616c7265616479207265676973746572656400000000006000830152602082019050919050565b6000606083016000830151848203600086015261244f8282611e5c565b915050602083015161246460208601826124d2565b50604083015161247760408601826124d2565b508091505092915050565b6000606083016000830151848203600086015261249f8282611e5c565b91505060208301516124b460208601826124d2565b5060408301516124c760408601826124d2565b508091505092915050565b6124db81612a27565b82525050565b6124ea81612a27565b82525050565b60006020820190506125056000830184611d5c565b92915050565b60006040820190506125206000830185611d3e565b61252d60208301846124e1565b9392505050565b6000602082019050818103600083015261254e8184611d6b565b905092915050565b600060208201905081810360008301526125708184611dc9565b905092915050565b600060808201905061258d6000830187611e3e565b61259a6020830186611e3e565b6125a760408301856124e1565b6125b46060830184611e3e565b95945050505050565b60006020820190506125d26000830184611e4d565b92915050565b60006040820190506125ed6000830185611e4d565b6125fa6020830184611e4d565b9392505050565b6000602082019050818103600083015261261b8184611e95565b905092915050565b6000606082019050818103600083015261263d8186611e95565b905061264c60208301856124e1565b61265960408301846124e1565b949350505050565b6000602082019050818103600083015261267a81611ece565b9050919050565b6000602082019050818103600083015261269a81611f0e565b9050919050565b600060208201905081810360008301526126ba81611f4e565b9050919050565b600060208201905081810360008301526126da81611fb4565b9050919050565b600060208201905081810360008301526126fa81611ff4565b9050919050565b6000602082019050818103600083015261271a81612034565b9050919050565b6000602082019050818103600083015261273a8161209a565b9050919050565b6000602082019050818103600083015261275a816120da565b9050919050565b6000602082019050818103600083015261277a81612140565b9050919050565b6000602082019050818103600083015261279a81612180565b9050919050565b600060208201905081810360008301526127ba816121c0565b9050919050565b600060208201905081810360008301526127da81612200565b9050919050565b600060208201905081810360008301526127fa81612240565b9050919050565b6000602082019050818103600083015261281a81612280565b9050919050565b6000602082019050818103600083015261283a816122c0565b9050919050565b6000602082019050818103600083015261285a81612326565b9050919050565b6000602082019050818103600083015261287a8161238c565b9050919050565b6000602082019050818103600083015261289a816123f2565b9050919050565b600060208201905081810360008301526128bb8184612482565b905092915050565b60006020820190506128d860008301846124e1565b92915050565b6000604051905081810181811067ffffffffffffffff8211171561290157600080fd5b8060405250919050565b600067ffffffffffffffff82111561292257600080fd5b601f19601f8301169050602081019050919050565b6000819050602082019050919050565b6000819050602082019050919050565b600081519050919050565b600081519050919050565b600081519050919050565b6000602082019050919050565b6000602082019050919050565b600082825260208201905092915050565b600082825260208201905092915050565b600082825260208201905092915050565b600082825260208201905092915050565b60006129e182612a07565b9050919050565b60008115159050919050565b6000819050612a0282612acc565b919050565b600073ffffffffffffffffffffffffffffffffffffffff82169050919050565b6000819050919050565b6000612a3c82612a55565b9050919050565b6000612a4e826129f4565b9050919050565b6000612a6082612a67565b9050919050565b6000612a7282612a07565b9050919050565b82818337600083830152505050565b60005b83811015612aa6578082015181840152602081019050612a8b565b83811115612ab5576000848401525b50505050565b6000601f19601f8301169050919050565b60068110612ad657fe5b50565b612ae2816129d6565b8114612aed57600080fd5b50565b612af981612a27565b8114612b0457600080fd5b5056fea2646970667358221220e22a62f53948ff01f41d8f0cfcae05a128958411f0fceceab0ad7b0d32adec4f64736f6c634300060b0033",
  "immutableReferences": {},
  "source": "// SPDX-License-Identifier: MIT\npragma solidity 0.6.11;\npragma experimental ABIEncoderV2;\n\nimport \"../client/node_modules/@openzeppelin/contracts/access/Ownable.sol\";\n\ncontract Voting is Ownable {\n\n  uint public winningProposalId;\n  string public winningProposal;\n  Proposal[] public proposalsArray;\n  mapping(address => Voter) public voters;\n  address [] public whitelistAddress;\n\n  struct Voter {\n    bool isRegistered;\n    bool hasVoted;\n    uint votedProposalId;\n    bool hasSubmittedProposal;\n  }\n\n  struct Proposal {\n    string description;\n    uint voteCount;\n    uint proposalId;\n  }\n\n  enum WorkflowStatus {\n    RegisteringVoters,\n    ProposalsRegistrationStarted,\n    ProposalsRegistrationEnded,\n    VotingSessionStarted,\n    VotingSessionEnded,\n    VotesTallied\n  }\n\n  WorkflowStatus public status = WorkflowStatus.RegisteringVoters;\n\n  event VoterRegistered(address voterAddress);\n  event ProposalsRegistrationStarted(string text);\n  event ProposalsRegistrationEnded(string text);\n  event ProposalRegistered(uint proposalId);\n  event VotingSessionStarted(string text);\n  event VotingSessionEnded(string text);\n  event Voted(address voter, uint proposalId);\n  event VotesTallied();\n  event WorkflowStatusChange(WorkflowStatus previousStatus, WorkflowStatus newStatus);\n\n\n  \n  function getWhitelistAddress()external view returns(address[] memory) {\n      return whitelistAddress;\n  }\n\n  function getProposalArray() external view returns (Proposal[] memory){\n    return proposalsArray;\n  }\n\n  function whitelist(address _toWhitelist) public onlyOwner {\n    require(status == WorkflowStatus.RegisteringVoters, \"not the time to add voters\");\n    require(!voters[_toWhitelist].isRegistered, \"voter is already registered\");\n    \n    voters[_toWhitelist].isRegistered = true;\n    whitelistAddress.push(_toWhitelist);\n    emit VoterRegistered(_toWhitelist);\n  }\n\n  function startProposalSession() public onlyOwner {\n    require(status == WorkflowStatus.RegisteringVoters, \"not the time to iniate proposal registering session\");\n   status = WorkflowStatus.ProposalsRegistrationStarted;\n   emit WorkflowStatusChange(WorkflowStatus.RegisteringVoters, WorkflowStatus.ProposalsRegistrationStarted);\n   emit ProposalsRegistrationStarted(\" proposal registration session started\");\n  }\n\n  function endProposalSession() public onlyOwner {\n    require(status == WorkflowStatus.ProposalsRegistrationStarted, \"registering proposal not in progress\");\n    status = WorkflowStatus.ProposalsRegistrationEnded;\n    emit WorkflowStatusChange(WorkflowStatus.ProposalsRegistrationStarted , WorkflowStatus.ProposalsRegistrationEnded);\n    emit ProposalsRegistrationEnded(\" proposal registration session ended\");\n  }\n\n  function startVotingSession() public onlyOwner {\n    require(status == WorkflowStatus.ProposalsRegistrationEnded, \"not the time to iniate voting session\");\n    status = WorkflowStatus.VotingSessionStarted;\n    emit WorkflowStatusChange(WorkflowStatus.ProposalsRegistrationEnded , WorkflowStatus.VotingSessionStarted);\n    emit ProposalsRegistrationStarted(\"voting session started\");\n  }\n\n  function endVotingSession() public onlyOwner {\n    require(status == WorkflowStatus.VotingSessionStarted, \"voting session not in process\");\n    status = WorkflowStatus.VotingSessionEnded;\n    emit WorkflowStatusChange(WorkflowStatus.VotingSessionStarted , WorkflowStatus.VotingSessionEnded);\n    emit VotingSessionEnded(\"voting session is ended\");\n  }\n\n  function createProposal(string memory _proposal) public {\n    require(status == WorkflowStatus.ProposalsRegistrationStarted, \"not time to register proposal\");\n    require(voters[msg.sender].isRegistered == true, \"address not allowed\");\n    require(voters[msg.sender].hasSubmittedProposal != true, \"voter already submitted proposal\");\n    \n    proposalsArray.push(Proposal({\n      description: _proposal,\n      voteCount : 0,\n      proposalId: proposalsArray.length\n    }));\n    voters[msg.sender].hasSubmittedProposal = true;\n  }\n\n  function vote(uint _proposalId) public {\n    require(status == WorkflowStatus.VotingSessionStarted, \"it's not time for voting\");\n    require(voters[msg.sender].isRegistered == true, \"user is not permitted to vote\");\n    require(voters[msg.sender].hasVoted != true, \"user has already voted\");\n\n    proposalsArray[_proposalId].voteCount++;\n    voters[msg.sender].hasVoted = true;\n    \n    emit  Voted(msg.sender, _proposalId);\n  }\n  \n\n  function tallyVotes() public onlyOwner returns (uint){\n      require(status == WorkflowStatus.VotingSessionEnded);\n      status = WorkflowStatus.VotesTallied;\n    uint winningVoteCount = 0;\n    for(uint p=0; p < proposalsArray.length; p++){\n      if(proposalsArray[p].voteCount > winningVoteCount){\n        winningVoteCount = proposalsArray[p].voteCount;\n        winningProposal = proposalsArray[p].description;\n        winningProposalId = p;\n      }\n    }\n    return winningProposalId ;\n  }\n\n  function getWinningProposal() external view returns (Proposal memory) {\n    return proposalsArray[winningProposalId];\n  }\n}",
  "sourcePath": "/Users/tomasiniarmand/Document/Alyra/voting-react/contracts/Voting.sol",
  "compiler": {
    "name": "solc",
    "version": "0.6.11+commit.5ef660b1.Emscripten.clang"
  },
  "schemaVersion": "3.3.2",
  "updatedAt": "2020-11-27T13:01:04.499Z",
  "networkType": "ethereum",
  "devdoc": {
    "kind": "dev",
    "methods": {
      "owner()": {
        "details": "Returns the address of the current owner."
      },
      "renounceOwnership()": {
        "details": "Leaves the contract without owner. It will not be possible to call `onlyOwner` functions anymore. Can only be called by the current owner. NOTE: Renouncing ownership will leave the contract without an owner, thereby removing any functionality that is only available to the owner."
      },
      "transferOwnership(address)": {
        "details": "Transfers ownership of the contract to a new account (`newOwner`). Can only be called by the current owner."
      }
    },
    "version": 1
  },
  "userdoc": {
    "kind": "user",
    "methods": {},
    "version": 1
  }
}